:060000000A128A11FC2F18
:100ED0008316031306108610061186110612861655
:100EE00083120313861E752F762FF72F013086008D
:100EF0002130F1007630F000F00B7C2FF10B7C2FCD
:100F0000000002308312031386002130F100763096
:100F1000F000F00B892FF10B892F000004308312B1
:100F2000031386002130F1007630F000F00B962F8D
:100F3000F10B962F00000830831203138600213036
:100F4000F1007630F000F00BA32FF10BA32F00007F
:100F500010308312031386002130F1007630F00048
:100F6000F00BB02FF10BB02F0000103083120313E1
:100F700086002130F1007630F000F00BBD2FF10B30
:100F8000BD2F000008308312031386002130F100CA
:100F90007630F000F00BCA2FF10BCA2F000004309E
:100FA0008312031386002130F1007630F000F00B3D
:100FB000D72FF10BD72F00000230831203138600C6
:100FC0002130F1007630F000F00BE42FF10BE42F2C
:100FD000000001308312031386002130F1007630C7
:100FE000F000F00BF12FF10BF12F0000702F8601B4
:100FF000702F0A128A11002883010A128A11682FA1
:00000001FF
