:060000000A128A11122809
:10000800FE00030EF2000408F3000A08F40083124D
:1000180003137F08F5000A128A1125280A128A118B
:10002800152883120313A001A101A201A301A401B1
:10003800A501A601A701A801A90183010A128A1135
:1000480097288B1C282829288A287E308100A0011F
:100058008B160B1D3028312857280830F600003041
:10006800F7007608203E8400003083120313061838
:10007800013083138000FF30F6070318F70AFF30BA
:10008800F7077708803AFF0080307F02031D4E286B
:100098000130760203185128522835288312031399
:1000A800A901A90A0B112603031D5B285C286828EF
:1000B800023086002130F1007630F000F00B622823
:1000C800F10B6228000089282803031D6C286D287D
:1000D8007928043086002130F1007630F000F00BEA
:1000E8007328F10B7328000089282503031D7D2838
:1000F8007E288928083086002130F1007630F0000B
:10010800F00B8428F10B842800008B1075088312EB
:100118000313FF0074088A0073088400720E8300BA
:10012800FE0E7E0E09008B170B160B178316031392
:10013800011386100611861106128612061407147A
:100148000111811001148111811283128601A928DD
:060158000A128A111228B0
:00000001FF
