:060000000A128A110C280F
:10000800FE00030EF1000A08F2000A128A114128C4
:100018000A128A110F28F301F40183010A128A11C6
:1000280015288B170B178316031301118110011064
:10003800811181128312031381018316031306149D
:100048008610061583120313061C2B282C28262835
:100058008B16F4017403031D3228332837288312C2
:1000680003138614F40108307306031D3C283D2849
:100078002C2826280A128A110C280B1D44284528EA
:100088004B28F401F40A0130F0007008F3070B1153
:0E00980072088A00710E8300FE0E7E0E0900B3
:00000001FF
