:100000000A128A11FC2F00308A000408840A820731
:100010000034483465346C346C346F3420345734D5
:100020006F3472346C346434213421340A340D3426
:040030000D34003457
:100F32008312031386159E2F8C128C1EA12FA22FB3
:100F42009D2F1A080800F0007008831203139900FD
:100F52000C1EAC2FAD2FA92F0C12080024308316C3
:100F62000313980090308312031398008130831684
:100F720003139900831203138C120C1208008316B8
:100F82000313071387170A128A11AF270A128A114D
:100F920001300A128A11DD270A128A110A128A11F5
:100FA20099270A128A110A128A11A4270A128A118F
:100FB200CF2F0A128A110028F200EF2F7208840044
:100FC2000A128A1103200A128A110A128A11A4270C
:100FD2000A128A110130F1007108F20772088400C6
:100FE2000A128A1103200A128A11003A031DFA2FEB
:0E0FF200FB2FDF2F080083010A128A11C02F87
:00000001FF
