:100000000A128A11FC2F00308A000408840A820731
:1000100000345034723465347334733420343234E1
:100020002D34593465346C346C346F347734203467
:100030006C34653464342E340A340034283450343B
:10004000723465347334733420343034203474346F
:100050006F34203472346534733465347434293425
:100060000A340034503472346534733473342034B9
:1000700031342D3447347234653465346E34203471
:100080006C34653464342E340A34003450347234A1
:10009000653473347334203433342D3442346C3447
:1000A0007534653420346C34653464342E340A3449
:1000B000003449346E3473347434723475346334B8
:1000C000743469346F346E3473343A340A3400341F
:100EA000522F8C12831203138C1E572F582F512F41
:100EB0001A080800F00070088312031399000C1E32
:100EC000622F632F5F2F08002430831603139800CE
:100ED0009030831203139800813083160313990016
:100EE0000800F200832F720884000A128A1103207E
:100EF0000A128A110A128A115A270A128A1101301B
:100F0000F1007108F207720884000A128A110320A6
:100F10000A128A11003A031D8E2F8F2F732F08009B
:100F20008316031307138717860183120313861191
:100F3000061186100A128A1164270A128A1151308A
:100F40000A128A1171270A128A112A300A128A118A
:100F500071270A128A1101300A128A1171270A12A6
:100F60008A113E300A128A1171270A128A1116302C
:100F70000A128A1171270A128A110A128A1150273D
:100F80000A128A11F300F4017308F5007408F600E0
:100F900075080A128A115A270A128A113130750609
:100FA0007604031DD42FD52FD82F83120313861454
:100FB000323075067604031DDE2FDF2FE22F8312F9
:100FC00003130615333075067604031DE82FE92F49
:100FD000EC2F831203138615303075067604031D3B
:100FE000F22FF32FBD2F83120313861106118610E3
:100FF000BD2F0A128A11002883010A128A11902F2C
:00000001FF
