:060000000A128A110C280F
:10000800FE00030EF2000A08F3000A128A111328F0
:100018000A128A110F2883010A128A11A1288B1C3F
:1000280016281728992802308312031386002130D6
:10003800F1007630F000F00B1F28F10B1F280000AC
:1000480004308312031386002130F1007630F0006B
:10005800F00B2C28F10B2C28000008308312031316
:1000680086002130F1007630F000F00B3928F10BD2
:100078003928000010308312031386002130F10064
:100088007630F000F00B4628F10B462800002030AF
:100098008312031386002130F1007630F000F00B54
:1000A8005328F10B532800002030831203138600D5
:1000B8002130F1007630F000F00B6028F10B602859
:1000C800000010308312031386002130F1007630CF
:1000D800F000F00B6D28F10B6D280000083083123A
:1000E800031386002130F1007630F000F00B7A28F7
:1000F800F10B7A28000004308312031386002130A4
:10010800F1007630F000F00B8728F10B872800000B
:1001180002308312031386002130F1007630F0009C
:10012800F00B9428F10B942800008B1073088A00B8
:10013800720E8300FE0E7E0E09008B170B160B172E
:1001480083160313011386100611861106128612F0
:1001580083120313860106308312031386002130AD
:10016800F5007630F400F40BB728F50BB72800003B
:1001780038308312031386002130F5007630F400FE
:10018800F40BC428F50BC4280000AF280A128A1102
:020198000C2831
:00000001FF
