:100000000A128A11FC2F00308A000408840A820731
:10001000003420344F34553454345034553454342F
:100020003A344C3445344434203431342034493467
:10003000533420344F344E340A34003420344F3497
:10004000553454345034553454343A344C344534A3
:1000500044342034323420344934533420344F343F
:100060004E340A34003420344F3455345434503430
:10007000553454343A344C344534443420343334D5
:1000800020344934533420344F344E340A3400344D
:100090004F34553454345034553454343A34203475
:1000A0004C3445344434533420344F34463446348D
:1000B0000A34003449344E345034553454343A34CC
:0400C0000A340034CA
:100EA200532F8C12831203138C1E582F592F522F3B
:100EB2001A080800F00070088312031399000C1E30
:100EC200632F642F602F08002430831603139800C9
:100ED2009030831203139800813083160313990014
:100EE2000800F200842F720884000A128A1103207B
:100EF2000A128A110A128A115B270A128A11013018
:100F0200F1007108F207720884000A128A110320A4
:100F12000A128A11003A031D8F2F902F742F080096
:100F2200831603130713871786018312031386019F
:100F32000A128A1165270A128A1152300A128A117C
:100F420072270A128A110A128A1151270A128A1169
:100F5200F300F4017308F5007408F60075080A122C
:100F62008A115B270A128A11313075067604031D35
:100F7200BB2FBC2FC62F0230831203138600013011
:100F82000A128A1172270A128A1132307506760401
:100F9200031DCC2FCD2FD72F0430831203138600CD
:100FA20016300A128A1172270A128A113330750614
:100FB2007604031DDD2FDE2FE82F08308312031382
:100FC20086002B300A128A1172270A128A113030D7
:100FD20075067604031DEE2FEF2FA42F8312031341
:100FE200860140300A128A1172270A128A11A42F2E
:0E0FF2000A128A11002883010A128A11912F17
:00000001FF
