:060000000A128A110C280F
:10000800FE00030EF1000A08F2000A128A119C2869
:100018000A128A110F28F30183010A128A1114287F
:100028008B178B160B1707308316031381000614E2
:100038008610061186110612861283120313860192
:10004800061C2728282899287308031D2C282D28E2
:1000580030288312031386017303031D34283528BF
:100068003928023083120313860002307306031DF9
:100078003E283F28432804308312031386000330A8
:100088007306031D482849284D2808308312031396
:10009800860004307306031D522853285728103051
:1000A80083120313860005307306031D5C285D2840
:1000B8006128203083120313860006307306031D5F
:1000C800662867286B2820308312031386000730C0
:1000D8007306031D702871287528103083120313C6
:1000E800860008307306031D7A287B287F2808308D
:1000F80083120313860009307306031D842885289C
:10010800892804308312031386000A307306031DFE
:100118008E288F28932802308312031386000B3011
:100128007306031D9828992828280A128A110C2872
:100138000B1D9F28A028A4280130F0007008F307A1
:100148000B1172088A00710E8300FE0E7E0E0900E4
:00000001FF
